{
  "_format": "hh-sol-artifact-1",
  "contractName": "TransparentCounter",
  "sourceName": "contracts/transparent/TransparentCounter.sol",
  "abi": [
    {
      "inputs": [
        {
          "internalType": "uint256",
          "name": "counter_",
          "type": "uint256"
        }
      ],
      "name": "__Counter_init",
      "outputs": [],
      "stateMutability": "nonpayable",
      "type": "function"
    },
    {
      "inputs": [],
      "name": "counter",
      "outputs": [
        {
          "internalType": "uint256",
          "name": "",
          "type": "uint256"
        }
      ],
      "stateMutability": "view",
      "type": "function"
    },
    {
      "inputs": [],
      "name": "increment",
      "outputs": [],
      "stateMutability": "nonpayable",
      "type": "function"
    }
  ],
  "bytecode": "0x608060405234801561001057600080fd5b506103bb806100206000396000f3fe608060405234801561001057600080fd5b50600436106100415760003560e01c806361bc221a14610046578063d09de08a14610064578063d24f47251461006e575b600080fd5b61004e61008a565b60405161005b91906101e4565b60405180910390f35b61006c610090565b005b61008860048036038101906100839190610230565b6100ab565b005b60015481565b60018060008282546100a2919061028c565b92505081905550565b600060019054906101000a900460ff166100d35760008054906101000a900460ff16156100dc565b6100db610197565b5b61011b576040517f08c379a000000000000000000000000000000000000000000000000000000000815260040161011290610365565b60405180910390fd5b60008060019054906101000a900460ff16159050801561016b576001600060016101000a81548160ff02191690831515021790555060016000806101000a81548160ff0219169083151502179055505b8160018190555080156101935760008060016101000a81548160ff0219169083151502179055505b5050565b60006101a2306101a8565b15905090565b6000808273ffffffffffffffffffffffffffffffffffffffff163b119050919050565b6000819050919050565b6101de816101cb565b82525050565b60006020820190506101f960008301846101d5565b92915050565b600080fd5b61020d816101cb565b811461021857600080fd5b50565b60008135905061022a81610204565b92915050565b600060208284031215610246576102456101ff565b5b60006102548482850161021b565b91505092915050565b7f4e487b7100000000000000000000000000000000000000000000000000000000600052601160045260246000fd5b6000610297826101cb565b91506102a2836101cb565b9250827fffffffffffffffffffffffffffffffffffffffffffffffffffffffffffffffff038211156102d7576102d661025d565b5b828201905092915050565b600082825260208201905092915050565b7f496e697469616c697a61626c653a20636f6e747261637420697320616c72656160008201527f647920696e697469616c697a6564000000000000000000000000000000000000602082015250565b600061034f602e836102e2565b915061035a826102f3565b604082019050919050565b6000602082019050818103600083015261037e81610342565b905091905056fea26469706673582212209e1ee6fc970edf793946e5e9718e8967f91ad4e6b40568e3729e58dc22b7fa7464736f6c634300080a0033",
  "linkReferences": {},
  "deployedLinkReferences": {}
}