{
  "_format": "hh-sol-artifact-1",
  "contractName": "rawProxy",
  "sourceName": "contracts/raw/Proxy.sol",
  "abi": [
    {
      "inputs": [
        {
          "internalType": "address",
          "name": "_impl",
          "type": "address"
        }
      ],
      "stateMutability": "nonpayable",
      "type": "constructor"
    },
    {
      "anonymous": false,
      "inputs": [
        {
          "indexed": true,
          "internalType": "address",
          "name": "previousOwner",
          "type": "address"
        },
        {
          "indexed": true,
          "internalType": "address",
          "name": "newOwner",
          "type": "address"
        }
      ],
      "name": "ProxyOwnershipTransferred",
      "type": "event"
    },
    {
      "anonymous": false,
      "inputs": [
        {
          "indexed": true,
          "internalType": "address",
          "name": "implementation",
          "type": "address"
        }
      ],
      "name": "Upgraded",
      "type": "event"
    },
    {
      "stateMutability": "payable",
      "type": "fallback"
    },
    {
      "inputs": [],
      "name": "implementation",
      "outputs": [
        {
          "internalType": "address",
          "name": "impl",
          "type": "address"
        }
      ],
      "stateMutability": "view",
      "type": "function"
    },
    {
      "inputs": [],
      "name": "proxyOwner",
      "outputs": [
        {
          "internalType": "address",
          "name": "owner",
          "type": "address"
        }
      ],
      "stateMutability": "view",
      "type": "function"
    },
    {
      "inputs": [
        {
          "internalType": "address",
          "name": "_newOwner",
          "type": "address"
        }
      ],
      "name": "transferProxyOwnership",
      "outputs": [],
      "stateMutability": "nonpayable",
      "type": "function"
    },
    {
      "inputs": [
        {
          "internalType": "address",
          "name": "_newImplementation",
          "type": "address"
        }
      ],
      "name": "upgradeTo",
      "outputs": [],
      "stateMutability": "nonpayable",
      "type": "function"
    },
    {
      "stateMutability": "payable",
      "type": "receive"
    }
  ],
  "bytecode": "0x608060405234801561001057600080fd5b5060405161092f38038061092f83398181016040528101906100329190610111565b6100413361005660201b60201c565b6100508161008260201b60201c565b5061013e565b60007ff080b61b3e582a48369653108d1ba2bb02cdea356a37d0d5cf8507ed2520245790508181555050565b60007f1353f07bdbab0942e72fc31cd6fc4982c1fcb2b747dd5bf6cd6d26eb5fdc0c7990508181555050565b600080fd5b600073ffffffffffffffffffffffffffffffffffffffff82169050919050565b60006100de826100b3565b9050919050565b6100ee816100d3565b81146100f957600080fd5b50565b60008151905061010b816100e5565b92915050565b600060208284031215610127576101266100ae565b5b6000610135848285016100fc565b91505092915050565b6107e28061014d6000396000f3fe6080604052600436106100435760003560e01c8063025313a2146100545780633659cfe61461007f5780635c60da1b146100a8578063f1739cae146100d35761004a565b3661004a57005b6100526100fc565b005b34801561006057600080fd5b5061006961019f565b6040516100769190610526565b60405180910390f35b34801561008b57600080fd5b506100a660048036038101906100a19190610572565b6101cd565b005b3480156100b457600080fd5b506100bd61030d565b6040516100ca9190610526565b60405180910390f35b3480156100df57600080fd5b506100fa60048036038101906100f59190610572565b61033b565b005b600061010661030d565b9050600073ffffffffffffffffffffffffffffffffffffffff168173ffffffffffffffffffffffffffffffffffffffff161415610178576040517f08c379a000000000000000000000000000000000000000000000000000000000815260040161016f906105fc565b60405180910390fd5b3660008037600080366000845af43d806000803e816000811461019a57816000f35b816000fd5b6000807ff080b61b3e582a48369653108d1ba2bb02cdea356a37d0d5cf8507ed252024579050805491505090565b6101d561019f565b73ffffffffffffffffffffffffffffffffffffffff163373ffffffffffffffffffffffffffffffffffffffff1614610242576040517f08c379a000000000000000000000000000000000000000000000000000000000815260040161023990610668565b60405180910390fd5b600061024c61030d565b90508173ffffffffffffffffffffffffffffffffffffffff168173ffffffffffffffffffffffffffffffffffffffff1614156102bd576040517f08c379a00000000000000000000000000000000000000000000000000000000081526004016102b4906106fa565b60405180910390fd5b6102c68261048d565b8173ffffffffffffffffffffffffffffffffffffffff167fbc7cd75a20ee27fd9adebab32041f755214dbc6bffa90cc0225b39da2e5c2d3b60405160405180910390a25050565b6000807f1353f07bdbab0942e72fc31cd6fc4982c1fcb2b747dd5bf6cd6d26eb5fdc0c799050805491505090565b61034361019f565b73ffffffffffffffffffffffffffffffffffffffff163373ffffffffffffffffffffffffffffffffffffffff16146103b0576040517f08c379a00000000000000000000000000000000000000000000000000000000081526004016103a790610668565b60405180910390fd5b600073ffffffffffffffffffffffffffffffffffffffff168173ffffffffffffffffffffffffffffffffffffffff161415610420576040517f08c379a00000000000000000000000000000000000000000000000000000000081526004016104179061078c565b60405180910390fd5b8073ffffffffffffffffffffffffffffffffffffffff1661043f61019f565b73ffffffffffffffffffffffffffffffffffffffff167f5a3e66efaa1e445ebd894728a69d6959842ea1e97bd79b892797106e270efcd960405160405180910390a361048a816104b9565b50565b60007f1353f07bdbab0942e72fc31cd6fc4982c1fcb2b747dd5bf6cd6d26eb5fdc0c7990508181555050565b60007ff080b61b3e582a48369653108d1ba2bb02cdea356a37d0d5cf8507ed2520245790508181555050565b600073ffffffffffffffffffffffffffffffffffffffff82169050919050565b6000610510826104e5565b9050919050565b61052081610505565b82525050565b600060208201905061053b6000830184610517565b92915050565b600080fd5b61054f81610505565b811461055a57600080fd5b50565b60008135905061056c81610546565b92915050565b60006020828403121561058857610587610541565b5b60006105968482850161055d565b91505092915050565b600082825260208201905092915050565b7f496d706c20616464726573732069732030000000000000000000000000000000600082015250565b60006105e660118361059f565b91506105f1826105b0565b602082019050919050565b60006020820190508181036000830152610615816105d9565b9050919050565b7f546f72656b6b6f3a204e6f74207468652070726f7879206f776e657200000000600082015250565b6000610652601c8361059f565b915061065d8261061c565b602082019050919050565b6000602082019050818103600083015261068181610645565b9050919050565b7f546f72656b6b6f3a20496e76616c69642063757272656e7420696d706c656d6560008201527f6e746174696f6e00000000000000000000000000000000000000000000000000602082015250565b60006106e460278361059f565b91506106ef82610688565b604082019050919050565b60006020820190508181036000830152610713816106d7565b9050919050565b7f546f72656b6b6f3a20496e76616c6964206e6577206f776e657220616464726560008201527f7373000000000000000000000000000000000000000000000000000000000000602082015250565b600061077660228361059f565b91506107818261071a565b604082019050919050565b600060208201905081810360008301526107a581610769565b905091905056fea2646970667358221220a562f3f4610777e111a27c771172bc3a26f8c348e9634966ecd1d14248b8894164736f6c634300080a0033",
  "linkReferences": {},
  "deployedLinkReferences": {}
}