{
  "_format": "hh-sol-artifact-1",
  "contractName": "UupsCounter",
  "sourceName": "contracts/uups/UupsCounter.sol",
  "abi": [
    {
      "anonymous": false,
      "inputs": [
        {
          "indexed": false,
          "internalType": "address",
          "name": "previousAdmin",
          "type": "address"
        },
        {
          "indexed": false,
          "internalType": "address",
          "name": "newAdmin",
          "type": "address"
        }
      ],
      "name": "AdminChanged",
      "type": "event"
    },
    {
      "anonymous": false,
      "inputs": [
        {
          "indexed": true,
          "internalType": "address",
          "name": "beacon",
          "type": "address"
        }
      ],
      "name": "BeaconUpgraded",
      "type": "event"
    },
    {
      "anonymous": false,
      "inputs": [
        {
          "indexed": true,
          "internalType": "address",
          "name": "previousOwner",
          "type": "address"
        },
        {
          "indexed": true,
          "internalType": "address",
          "name": "newOwner",
          "type": "address"
        }
      ],
      "name": "OwnershipTransferred",
      "type": "event"
    },
    {
      "anonymous": false,
      "inputs": [
        {
          "indexed": true,
          "internalType": "address",
          "name": "implementation",
          "type": "address"
        }
      ],
      "name": "Upgraded",
      "type": "event"
    },
    {
      "inputs": [],
      "name": "counter",
      "outputs": [
        {
          "internalType": "uint256",
          "name": "",
          "type": "uint256"
        }
      ],
      "stateMutability": "view",
      "type": "function"
    },
    {
      "inputs": [],
      "name": "increment",
      "outputs": [],
      "stateMutability": "nonpayable",
      "type": "function"
    },
    {
      "inputs": [
        {
          "internalType": "uint256",
          "name": "slice_",
          "type": "uint256"
        }
      ],
      "name": "initialize",
      "outputs": [],
      "stateMutability": "nonpayable",
      "type": "function"
    },
    {
      "inputs": [],
      "name": "owner",
      "outputs": [
        {
          "internalType": "address",
          "name": "",
          "type": "address"
        }
      ],
      "stateMutability": "view",
      "type": "function"
    },
    {
      "inputs": [],
      "name": "proxiableUUID",
      "outputs": [
        {
          "internalType": "bytes32",
          "name": "",
          "type": "bytes32"
        }
      ],
      "stateMutability": "view",
      "type": "function"
    },
    {
      "inputs": [],
      "name": "renounceOwnership",
      "outputs": [],
      "stateMutability": "nonpayable",
      "type": "function"
    },
    {
      "inputs": [
        {
          "internalType": "address",
          "name": "newOwner",
          "type": "address"
        }
      ],
      "name": "transferOwnership",
      "outputs": [],
      "stateMutability": "nonpayable",
      "type": "function"
    },
    {
      "inputs": [
        {
          "internalType": "address",
          "name": "newImplementation",
          "type": "address"
        }
      ],
      "name": "upgradeTo",
      "outputs": [],
      "stateMutability": "nonpayable",
      "type": "function"
    },
    {
      "inputs": [
        {
          "internalType": "address",
          "name": "newImplementation",
          "type": "address"
        },
        {
          "internalType": "bytes",
          "name": "data",
          "type": "bytes"
        }
      ],
      "name": "upgradeToAndCall",
      "outputs": [],
      "stateMutability": "payable",
      "type": "function"
    }
  ],
  "bytecode": "0x60a06040523073ffffffffffffffffffffffffffffffffffffffff1660809073ffffffffffffffffffffffffffffffffffffffff1681525034801561004357600080fd5b50608051611a3261007b600039600081816101d3015281816102620152818161035c015281816103eb015261049b0152611a326000f3fe6080604052600436106100865760003560e01c8063715018a611610059578063715018a6146101265780638da5cb5b1461013d578063d09de08a14610168578063f2fde38b1461017f578063fe4b84df146101a857610086565b80633659cfe61461008b5780634f1ef286146100b457806352d1902d146100d057806361bc221a146100fb575b600080fd5b34801561009757600080fd5b506100b260048036038101906100ad9190610f15565b6101d1565b005b6100ce60048036038101906100c99190611088565b61035a565b005b3480156100dc57600080fd5b506100e5610497565b6040516100f291906110fd565b60405180910390f35b34801561010757600080fd5b50610110610550565b60405161011d9190611131565b60405180910390f35b34801561013257600080fd5b5061013b610556565b005b34801561014957600080fd5b506101526105de565b60405161015f919061115b565b60405180910390f35b34801561017457600080fd5b5061017d610608565b005b34801561018b57600080fd5b506101a660048036038101906101a19190610f15565b610624565b005b3480156101b457600080fd5b506101cf60048036038101906101ca91906111a2565b61071c565b005b7f000000000000000000000000000000000000000000000000000000000000000073ffffffffffffffffffffffffffffffffffffffff163073ffffffffffffffffffffffffffffffffffffffff161415610260576040517f08c379a000000000000000000000000000000000000000000000000000000000815260040161025790611252565b60405180910390fd5b7f000000000000000000000000000000000000000000000000000000000000000073ffffffffffffffffffffffffffffffffffffffff1661029f610810565b73ffffffffffffffffffffffffffffffffffffffff16146102f5576040517f08c379a00000000000000000000000000000000000000000000000000000000081526004016102ec906112e4565b60405180910390fd5b6102fe81610867565b61035781600067ffffffffffffffff81111561031d5761031c610f5d565b5b6040519080825280601f01601f19166020018201604052801561034f5781602001600182028036833780820191505090505b5060006108e6565b50565b7f000000000000000000000000000000000000000000000000000000000000000073ffffffffffffffffffffffffffffffffffffffff163073ffffffffffffffffffffffffffffffffffffffff1614156103e9576040517f08c379a00000000000000000000000000000000000000000000000000000000081526004016103e090611252565b60405180910390fd5b7f000000000000000000000000000000000000000000000000000000000000000073ffffffffffffffffffffffffffffffffffffffff16610428610810565b73ffffffffffffffffffffffffffffffffffffffff161461047e576040517f08c379a0000000000000000000000000000000000000000000000000000000008152600401610475906112e4565b60405180910390fd5b61048782610867565b610493828260016108e6565b5050565b60007f000000000000000000000000000000000000000000000000000000000000000073ffffffffffffffffffffffffffffffffffffffff163073ffffffffffffffffffffffffffffffffffffffff1614610527576040517f08c379a000000000000000000000000000000000000000000000000000000000815260040161051e90611376565b60405180910390fd5b7f360894a13ba1a3210667c828492db98dca3e2076cc3735a920a3ca505d382bbc60001b905090565b60c95481565b61055e610a54565b73ffffffffffffffffffffffffffffffffffffffff1661057c6105de565b73ffffffffffffffffffffffffffffffffffffffff16146105d2576040517f08c379a00000000000000000000000000000000000000000000000000000000081526004016105c9906113e2565b60405180910390fd5b6105dc6000610a5c565b565b6000609760009054906101000a900473ffffffffffffffffffffffffffffffffffffffff16905090565b600160c9600082825461061b9190611431565b92505081905550565b61062c610a54565b73ffffffffffffffffffffffffffffffffffffffff1661064a6105de565b73ffffffffffffffffffffffffffffffffffffffff16146106a0576040517f08c379a0000000000000000000000000000000000000000000000000000000008152600401610697906113e2565b60405180910390fd5b600073ffffffffffffffffffffffffffffffffffffffff168173ffffffffffffffffffffffffffffffffffffffff161415610710576040517f08c379a0000000000000000000000000000000000000000000000000000000008152600401610707906114f9565b60405180910390fd5b61071981610a5c565b50565b600060019054906101000a900460ff166107445760008054906101000a900460ff161561074d565b61074c610b22565b5b61078c576040517f08c379a00000000000000000000000000000000000000000000000000000000081526004016107839061158b565b60405180910390fd5b60008060019054906101000a900460ff1615905080156107dc576001600060016101000a81548160ff02191690831515021790555060016000806101000a81548160ff0219169083151502179055505b8160c9819055506107eb610b33565b801561080c5760008060016101000a81548160ff0219169083151502179055505b5050565b600061083e7f360894a13ba1a3210667c828492db98dca3e2076cc3735a920a3ca505d382bbc60001b610b8c565b60000160009054906101000a900473ffffffffffffffffffffffffffffffffffffffff16905090565b61086f610a54565b73ffffffffffffffffffffffffffffffffffffffff1661088d6105de565b73ffffffffffffffffffffffffffffffffffffffff16146108e3576040517f08c379a00000000000000000000000000000000000000000000000000000000081526004016108da906113e2565b60405180910390fd5b50565b6109127f4910fdfa16fed3260ed0e7147f7cc6da11a60208b5b9406d12a635614ffd914360001b610b96565b60000160009054906101000a900460ff16156109365761093183610ba0565b610a4f565b8273ffffffffffffffffffffffffffffffffffffffff166352d1902d6040518163ffffffff1660e01b8152600401602060405180830381865afa92505050801561099e57506040513d601f19601f8201168201806040525081019061099b91906115d7565b60015b6109dd576040517f08c379a00000000000000000000000000000000000000000000000000000000081526004016109d490611676565b60405180910390fd5b7f360894a13ba1a3210667c828492db98dca3e2076cc3735a920a3ca505d382bbc60001b8114610a42576040517f08c379a0000000000000000000000000000000000000000000000000000000008152600401610a3990611708565b60405180910390fd5b50610a4e838383610c59565b5b505050565b600033905090565b6000609760009054906101000a900473ffffffffffffffffffffffffffffffffffffffff16905081609760006101000a81548173ffffffffffffffffffffffffffffffffffffffff021916908373ffffffffffffffffffffffffffffffffffffffff1602179055508173ffffffffffffffffffffffffffffffffffffffff168173ffffffffffffffffffffffffffffffffffffffff167f8be0079c531659141344cd1fd0a4f28419497f9722a3daafe3b4186f6b6457e060405160405180910390a35050565b6000610b2d30610c85565b15905090565b600060019054906101000a900460ff16610b82576040517f08c379a0000000000000000000000000000000000000000000000000000000008152600401610b799061179a565b60405180910390fd5b610b8a610ca8565b565b6000819050919050565b6000819050919050565b610ba981610c85565b610be8576040517f08c379a0000000000000000000000000000000000000000000000000000000008152600401610bdf9061182c565b60405180910390fd5b80610c157f360894a13ba1a3210667c828492db98dca3e2076cc3735a920a3ca505d382bbc60001b610b8c565b60000160006101000a81548173ffffffffffffffffffffffffffffffffffffffff021916908373ffffffffffffffffffffffffffffffffffffffff16021790555050565b610c6283610d09565b600082511180610c6f5750805b15610c8057610c7e8383610d58565b505b505050565b6000808273ffffffffffffffffffffffffffffffffffffffff163b119050919050565b600060019054906101000a900460ff16610cf7576040517f08c379a0000000000000000000000000000000000000000000000000000000008152600401610cee9061179a565b60405180910390fd5b610d07610d02610a54565b610a5c565b565b610d1281610ba0565b8073ffffffffffffffffffffffffffffffffffffffff167fbc7cd75a20ee27fd9adebab32041f755214dbc6bffa90cc0225b39da2e5c2d3b60405160405180910390a250565b6060610d6383610c85565b610da2576040517f08c379a0000000000000000000000000000000000000000000000000000000008152600401610d99906118be565b60405180910390fd5b6000808473ffffffffffffffffffffffffffffffffffffffff1684604051610dca9190611958565b600060405180830381855af49150503d8060008114610e05576040519150601f19603f3d011682016040523d82523d6000602084013e610e0a565b606091505b5091509150610e3282826040518060600160405280602781526020016119d660279139610e3c565b9250505092915050565b60608315610e4c57829050610e9c565b600083511115610e5f5782518084602001fd5b816040517f08c379a0000000000000000000000000000000000000000000000000000000008152600401610e9391906119b3565b60405180910390fd5b9392505050565b6000604051905090565b600080fd5b600080fd5b600073ffffffffffffffffffffffffffffffffffffffff82169050919050565b6000610ee282610eb7565b9050919050565b610ef281610ed7565b8114610efd57600080fd5b50565b600081359050610f0f81610ee9565b92915050565b600060208284031215610f2b57610f2a610ead565b5b6000610f3984828501610f00565b91505092915050565b600080fd5b600080fd5b6000601f19601f8301169050919050565b7f4e487b7100000000000000000000000000000000000000000000000000000000600052604160045260246000fd5b610f9582610f4c565b810181811067ffffffffffffffff82111715610fb457610fb3610f5d565b5b80604052505050565b6000610fc7610ea3565b9050610fd38282610f8c565b919050565b600067ffffffffffffffff821115610ff357610ff2610f5d565b5b610ffc82610f4c565b9050602081019050919050565b82818337600083830152505050565b600061102b61102684610fd8565b610fbd565b90508281526020810184848401111561104757611046610f47565b5b611052848285611009565b509392505050565b600082601f83011261106f5761106e610f42565b5b813561107f848260208601611018565b91505092915050565b6000806040838503121561109f5761109e610ead565b5b60006110ad85828601610f00565b925050602083013567ffffffffffffffff8111156110ce576110cd610eb2565b5b6110da8582860161105a565b9150509250929050565b6000819050919050565b6110f7816110e4565b82525050565b600060208201905061111260008301846110ee565b92915050565b6000819050919050565b61112b81611118565b82525050565b60006020820190506111466000830184611122565b92915050565b61115581610ed7565b82525050565b6000602082019050611170600083018461114c565b92915050565b61117f81611118565b811461118a57600080fd5b50565b60008135905061119c81611176565b92915050565b6000602082840312156111b8576111b7610ead565b5b60006111c68482850161118d565b91505092915050565b600082825260208201905092915050565b7f46756e6374696f6e206d7573742062652063616c6c6564207468726f7567682060008201527f64656c656761746563616c6c0000000000000000000000000000000000000000602082015250565b600061123c602c836111cf565b9150611247826111e0565b604082019050919050565b6000602082019050818103600083015261126b8161122f565b9050919050565b7f46756e6374696f6e206d7573742062652063616c6c6564207468726f7567682060008201527f6163746976652070726f78790000000000000000000000000000000000000000602082015250565b60006112ce602c836111cf565b91506112d982611272565b604082019050919050565b600060208201905081810360008301526112fd816112c1565b9050919050565b7f555550535570677261646561626c653a206d757374206e6f742062652063616c60008201527f6c6564207468726f7567682064656c656761746563616c6c0000000000000000602082015250565b60006113606038836111cf565b915061136b82611304565b604082019050919050565b6000602082019050818103600083015261138f81611353565b9050919050565b7f4f776e61626c653a2063616c6c6572206973206e6f7420746865206f776e6572600082015250565b60006113cc6020836111cf565b91506113d782611396565b602082019050919050565b600060208201905081810360008301526113fb816113bf565b9050919050565b7f4e487b7100000000000000000000000000000000000000000000000000000000600052601160045260246000fd5b600061143c82611118565b915061144783611118565b9250827fffffffffffffffffffffffffffffffffffffffffffffffffffffffffffffffff0382111561147c5761147b611402565b5b828201905092915050565b7f4f776e61626c653a206e6577206f776e657220697320746865207a65726f206160008201527f6464726573730000000000000000000000000000000000000000000000000000602082015250565b60006114e36026836111cf565b91506114ee82611487565b604082019050919050565b60006020820190508181036000830152611512816114d6565b9050919050565b7f496e697469616c697a61626c653a20636f6e747261637420697320616c72656160008201527f647920696e697469616c697a6564000000000000000000000000000000000000602082015250565b6000611575602e836111cf565b915061158082611519565b604082019050919050565b600060208201905081810360008301526115a481611568565b9050919050565b6115b4816110e4565b81146115bf57600080fd5b50565b6000815190506115d1816115ab565b92915050565b6000602082840312156115ed576115ec610ead565b5b60006115fb848285016115c2565b91505092915050565b7f45524331393637557067726164653a206e657720696d706c656d656e7461746960008201527f6f6e206973206e6f742055555053000000000000000000000000000000000000602082015250565b6000611660602e836111cf565b915061166b82611604565b604082019050919050565b6000602082019050818103600083015261168f81611653565b9050919050565b7f45524331393637557067726164653a20756e737570706f727465642070726f7860008201527f6961626c65555549440000000000000000000000000000000000000000000000602082015250565b60006116f26029836111cf565b91506116fd82611696565b604082019050919050565b60006020820190508181036000830152611721816116e5565b9050919050565b7f496e697469616c697a61626c653a20636f6e7472616374206973206e6f74206960008201527f6e697469616c697a696e67000000000000000000000000000000000000000000602082015250565b6000611784602b836111cf565b915061178f82611728565b604082019050919050565b600060208201905081810360008301526117b381611777565b9050919050565b7f455243313936373a206e657720696d706c656d656e746174696f6e206973206e60008201527f6f74206120636f6e747261637400000000000000000000000000000000000000602082015250565b6000611816602d836111cf565b9150611821826117ba565b604082019050919050565b6000602082019050818103600083015261184581611809565b9050919050565b7f416464726573733a2064656c65676174652063616c6c20746f206e6f6e2d636f60008201527f6e74726163740000000000000000000000000000000000000000000000000000602082015250565b60006118a86026836111cf565b91506118b38261184c565b604082019050919050565b600060208201905081810360008301526118d78161189b565b9050919050565b600081519050919050565b600081905092915050565b60005b838110156119125780820151818401526020810190506118f7565b83811115611921576000848401525b50505050565b6000611932826118de565b61193c81856118e9565b935061194c8185602086016118f4565b80840191505092915050565b60006119648284611927565b915081905092915050565b600081519050919050565b60006119858261196f565b61198f81856111cf565b935061199f8185602086016118f4565b6119a881610f4c565b840191505092915050565b600060208201905081810360008301526119cd818461197a565b90509291505056fe416464726573733a206c6f772d6c6576656c2064656c65676174652063616c6c206661696c6564a2646970667358221220250f081ec22b308b0c4618a7a872bd46c812a1e073c6576d4739fc81f69245b564736f6c634300080a0033",
  "linkReferences": {},
  "deployedLinkReferences": {}
}